{
  "contractName": "Tellor",
  "abi": [
    {
      "constant": false,
      "inputs": [
        {
          "name": "_address",
          "type": "address"
        },
        {
          "name": "_amount",
          "type": "uint256"
        }
      ],
      "name": "theLazyCoon",
      "outputs": [],
      "payable": false,
      "stateMutability": "nonpayable",
      "type": "function"
    },
    {
      "constant": false,
      "inputs": [
        {
          "name": "_requestId",
          "type": "uint256"
        },
        {
          "name": "_tip",
          "type": "uint256"
        }
      ],
      "name": "addTip",
      "outputs": [],
      "payable": false,
      "stateMutability": "nonpayable",
      "type": "function"
    },
    {
      "constant": false,
      "inputs": [
        {
          "name": "_c_sapi",
          "type": "string"
        },
        {
          "name": "_c_symbol",
          "type": "string"
        },
        {
          "name": "_granularity",
          "type": "uint256"
        },
        {
          "name": "_tip",
          "type": "uint256"
        }
      ],
      "name": "requestData",
      "outputs": [],
      "payable": false,
      "stateMutability": "nonpayable",
      "type": "function"
    },
    {
      "constant": false,
      "inputs": [
        {
          "name": "_nonce",
          "type": "string"
        },
        {
          "name": "_requestId",
          "type": "uint256"
        },
        {
          "name": "_value",
          "type": "uint256"
        }
      ],
      "name": "submitMiningSolution",
      "outputs": [],
      "payable": false,
      "stateMutability": "nonpayable",
      "type": "function"
    },
    {
      "constant": false,
      "inputs": [
        {
          "name": "_spender",
          "type": "address"
        },
        {
          "name": "_amount",
          "type": "uint256"
        }
      ],
      "name": "approve",
      "outputs": [
        {
          "name": "",
          "type": "bool"
        }
      ],
      "payable": false,
      "stateMutability": "nonpayable",
      "type": "function"
    },
    {
      "constant": false,
      "inputs": [
        {
          "name": "_to",
          "type": "address"
        },
        {
          "name": "_amount",
          "type": "uint256"
        }
      ],
      "name": "transfer",
      "outputs": [
        {
          "name": "",
          "type": "bool"
        }
      ],
      "payable": false,
      "stateMutability": "nonpayable",
      "type": "function"
    },
    {
      "constant": false,
      "inputs": [
        {
          "name": "_from",
          "type": "address"
        },
        {
          "name": "_to",
          "type": "address"
        },
        {
          "name": "_amount",
          "type": "uint256"
        }
      ],
      "name": "transferFrom",
      "outputs": [
        {
          "name": "",
          "type": "bool"
        }
      ],
      "payable": false,
      "stateMutability": "nonpayable",
      "type": "function"
    }
  ],
  "bytecode": "0x608060405234801561001057600080fd5b50610966806100206000396000f3fe608060405234801561001057600080fd5b506004361061007d5760003560e01c806368c180d51161005b57806368c180d514610250578063752d49a1146102dd578063a9059cbb14610315578063b079f64a1461037b5761007d565b8063095ea7b31461008257806323b872dd146100e85780633fff28161461016e575b600080fd5b6100ce6004803603604081101561009857600080fd5b81019080803573ffffffffffffffffffffffffffffffffffffffff169060200190929190803590602001909291905050506103c9565b604051808215151515815260200191505060405180910390f35b610154600480360360608110156100fe57600080fd5b81019080803573ffffffffffffffffffffffffffffffffffffffff169060200190929190803573ffffffffffffffffffffffffffffffffffffffff1690602001909291908035906020019092919050505061049b565b604051808215151515815260200191505060405180910390f35b61024e6004803603608081101561018457600080fd5b81019080803590602001906401000000008111156101a157600080fd5b8201836020820111156101b357600080fd5b803590602001918460018302840111640100000000831117156101d557600080fd5b9091929391929390803590602001906401000000008111156101f657600080fd5b82018360208201111561020857600080fd5b8035906020019184600183028401116401000000008311171561022a57600080fd5b909192939192939080359060200190929190803590602001909291905050506105a2565b005b6102db6004803603606081101561026657600080fd5b810190808035906020019064010000000081111561028357600080fd5b82018360208201111561029557600080fd5b803590602001918460018302840111640100000000831117156102b757600080fd5b9091929391929390803590602001909291908035906020019092919050505061068c565b005b610313600480360360408110156102f357600080fd5b810190808035906020019092919080359060200190929190505050610740565b005b6103616004803603604081101561032b57600080fd5b81019080803573ffffffffffffffffffffffffffffffffffffffff169060200190929190803590602001909291905050506107be565b604051808215151515815260200191505060405180910390f35b6103c76004803603604081101561039157600080fd5b81019080803573ffffffffffffffffffffffffffffffffffffffff16906020019092919080359060200190929190505050610890565b005b60008073__TellorTransfer________________________63850dcc32909185856040518463ffffffff1660e01b8152600401808481526020018373ffffffffffffffffffffffffffffffffffffffff1673ffffffffffffffffffffffffffffffffffffffff168152602001828152602001935050505060206040518083038186803b15801561045857600080fd5b505af415801561046c573d6000803e3d6000fd5b505050506040513d602081101561048257600080fd5b8101908080519060200190929190505050905092915050565b60008073__TellorTransfer________________________63ca50189990918686866040518563ffffffff1660e01b8152600401808581526020018473ffffffffffffffffffffffffffffffffffffffff1673ffffffffffffffffffffffffffffffffffffffff1681526020018373ffffffffffffffffffffffffffffffffffffffff1673ffffffffffffffffffffffffffffffffffffffff16815260200182815260200194505050505060206040518083038186803b15801561055e57600080fd5b505af4158015610572573d6000803e3d6000fd5b505050506040513d602081101561058857600080fd5b810190808051906020019092919050505090509392505050565b600073__TellorLibrary_________________________6385997bf690918888888888886040518863ffffffff1660e01b81526004018088815260200180602001806020018581526020018481526020018381038352898982818152602001925080828437600081840152601f19601f8201169050808301925050508381038252878782818152602001925080828437600081840152601f19601f820116905080830192505050995050505050505050505060006040518083038186803b15801561066c57600080fd5b505af4158015610680573d6000803e3d6000fd5b50505050505050505050565b600073__TellorLibrary_________________________63a098b5b49091868686866040518663ffffffff1660e01b815260040180868152602001806020018481526020018381526020018281038252868682818152602001925080828437600081840152601f19601f820116905080830192505050965050505050505060006040518083038186803b15801561072257600080fd5b505af4158015610736573d6000803e3d6000fd5b5050505050505050565b600073__TellorLibrary_________________________6302e8f21b909184846040518463ffffffff1660e01b815260040180848152602001838152602001828152602001935050505060006040518083038186803b1580156107a257600080fd5b505af41580156107b6573d6000803e3d6000fd5b505050505050565b60008073__TellorTransfer________________________63c84b96f5909185856040518463ffffffff1660e01b8152600401808481526020018373ffffffffffffffffffffffffffffffffffffffff1673ffffffffffffffffffffffffffffffffffffffff168152602001828152602001935050505060206040518083038186803b15801561084d57600080fd5b505af4158015610861573d6000803e3d6000fd5b505050506040513d602081101561087757600080fd5b8101908080519060200190929190505050905092915050565b600073__TellorLibrary_________________________6348656ba6909184846040518463ffffffff1660e01b8152600401808481526020018373ffffffffffffffffffffffffffffffffffffffff1673ffffffffffffffffffffffffffffffffffffffff168152602001828152602001935050505060006040518083038186803b15801561091e57600080fd5b505af4158015610932573d6000803e3d6000fd5b50505050505056fea165627a7a72305820a9df2e35011c9881c3918c7b7298d8c281bda1c30cf300ebda3378e9711b251a0029",
  "source": "pragma solidity ^0.5.0;\n\n/**** Tellor Test Contract***/\n/*WARNING: This contract excludes mining functions\n           This has bee adapted for projects testing Tellor integration\n\n**/\nimport \"../libraries/SafeMath.sol\";\nimport \"../libraries/TellorStorage.sol\";\nimport \"../libraries/TellorTransfer.sol\";\n//import \"./libraries/TellorDispute.sol\";\n//import \"./libraries/TellorStake.sol\";\nimport \"../libraries/TellorLibrary.sol\";\n\n/**\n * @title Tellor Oracle System\n * @dev Oracle contract where miners can submit the proof of work along with the value.\n * The logic for this contract is in TellorLibrary.sol, TellorDispute.sol, TellorStake.sol,\n * and TellorTransfer.sol\n */\ncontract Tellor {\n    using SafeMath for uint256;\n\n    //using TellorDispute for TellorStorage.TellorStorageStruct;\n    using TellorLibrary for TellorStorage.TellorStorageStruct;\n    //using TellorStake for TellorStorage.TellorStorageStruct;\n    using TellorTransfer for TellorStorage.TellorStorageStruct;\n\n    TellorStorage.TellorStorageStruct tellor;\n\n    /*Functions*/\n\n    /*This function is NOT part of mainnet deployment. It is a cheat for demo and testing purposes*/\n    function theLazyCoon(address _address, uint _amount) public {\n        tellor.theLazyCoon(_address,_amount);\n    }\n\n    // /**\n    // * @dev Helps initialize a dispute by assigning it a disputeId\n    // * when a miner returns a false on the validate array(in Tellor.ProofOfWork) it sends the\n    // * invalidated value information to POS voting\n    // * @param _requestId being disputed\n    // * @param _timestamp being disputed\n    // * @param _minerIndex the index of the miner that submitted the value being disputed. Since each official value\n    // * requires 5 miners to submit a value.\n    // */\n    // function beginDispute(uint256 _requestId, uint256 _timestamp, uint256 _minerIndex) external {\n    //     tellor.beginDispute(_requestId, _timestamp, _minerIndex);\n    // }\n\n    // *\n    // * @dev Allows token holders to vote\n    // * @param _disputeId is the dispute id\n    // * @param _supportsDispute is the vote (true=the dispute has basis false = vote against dispute)\n    \n    // function vote(uint256 _disputeId, bool _supportsDispute) external {\n    //     tellor.vote(_disputeId, _supportsDispute);\n    // }\n\n    // /**\n    // * @dev tallies the votes.\n    // * @param _disputeId is the dispute id\n    // */\n    // function tallyVotes(uint256 _disputeId) external {\n    //     tellor.tallyVotes(_disputeId);\n    // }\n\n    // /**\n    // * @dev Allows for a fork to be proposed\n    // * @param _propNewTellorAddress address for new proposed Tellor\n    // */\n    // function proposeFork(address _propNewTellorAddress) external {\n    //     tellor.proposeFork(_propNewTellorAddress);\n    // }\n\n    /**\n    * @dev Add tip to Request value from oracle\n    * @param _requestId being requested to be mined\n    * @param _tip amount the requester is willing to pay to be get on queue. Miners\n    * mine the onDeckQueryHash, or the api with the highest payout pool\n    */\n    function addTip(uint256 _requestId, uint256 _tip) external {\n        tellor.addTip(_requestId, _tip);\n    }\n\n    /**\n    * @dev Request to retreive value from oracle based on timestamp. The tip is not required to be\n    * greater than 0 because there are no tokens in circulation for the initial(genesis) request\n    * @param _c_sapi string API being requested be mined\n    * @param _c_symbol is the short string symbol for the api request\n    * @param _granularity is the number of decimals miners should include on the submitted value\n    * @param _tip amount the requester is willing to pay to be get on queue. Miners\n    * mine the onDeckQueryHash, or the api with the highest payout pool\n    */\n    function requestData(string calldata _c_sapi, string calldata _c_symbol, uint256 _granularity, uint256 _tip) external {\n        tellor.requestData(_c_sapi, _c_symbol, _granularity, _tip);\n    }\n\n    /**\n    * @dev Proof of work is called by the miner when they submit the solution (proof of work and value)\n    * @param _nonce uint submitted by miner\n    * @param _requestId the apiId being mined\n    * @param _value of api query\n    */\n    function submitMiningSolution(string calldata _nonce, uint256 _requestId, uint256 _value) external {\n        tellor.submitMiningSolution(_nonce, _requestId, _value);\n    }\n\n    // /**\n    // * @dev Allows the current owner to propose transfer control of the contract to a\n    // * newOwner and the ownership is pending until the new owner calls the claimOwnership\n    // * function\n    // * @param _pendingOwner The address to transfer ownership to.\n    // */\n    // function proposeOwnership(address payable _pendingOwner) external {\n    //     tellor.proposeOwnership(_pendingOwner);\n    // }\n\n    // /**\n    // * @dev Allows the new owner to claim control of the contract\n    // */\n    // function claimOwnership() external {\n    //     tellor.claimOwnership();\n    // }\n\n    // /**\n    // * @dev This function allows miners to deposit their stake.\n    // */\n    // function depositStake() external {\n    //     tellor.depositStake();\n    // }\n\n    // *\n    // * @dev This function allows stakers to request to withdraw their stake (no longer stake)\n    // * once they lock for withdraw(stakes.currentStatus = 2) they are locked for 7 days before they\n    // * can withdraw the stake\n    \n    // function requestStakingWithdraw() external {\n    //     tellor.requestStakingWithdraw();\n    // }\n\n    // /**\n    // * @dev This function allows users to withdraw their stake after a 7 day waiting period from request\n    // */\n    // function withdrawStake() external {\n    //     tellor.withdrawStake();\n    // }\n\n    /**\n    * @dev This function approves a _spender an _amount of tokens to use\n    * @param _spender address\n    * @param _amount amount the spender is being approved for\n    * @return true if spender appproved successfully\n    */\n    function approve(address _spender, uint256 _amount) external returns (bool) {\n        return tellor.approve(_spender, _amount);\n    }\n\n    /**\n    * @dev Allows for a transfer of tokens to _to\n    * @param _to The address to send tokens to\n    * @param _amount The amount of tokens to send\n    * @return true if transfer is successful\n    */\n    function transfer(address _to, uint256 _amount) external returns (bool) {\n        return tellor.transfer(_to, _amount);\n    }\n\n    /**\n    * @dev Sends _amount tokens to _to from _from on the condition it\n    * is approved by _from\n    * @param _from The address holding the tokens being transferred\n    * @param _to The address of the recipient\n    * @param _amount The amount of tokens to be transferred\n    * @return True if the transfer was successful\n    */\n    function transferFrom(address _from, address _to, uint256 _amount) external returns (bool) {\n        return tellor.transferFrom(_from, _to, _amount);\n    }\n\n    // /**\n    // * @dev Allows users to access the token's name\n    // */\n    // function name() external pure returns (string memory) {\n    //     return \"Tellor Tributes\";\n    // }\n\n    // /**\n    // * @dev Allows users to access the token's symbol\n    // */\n    // function symbol() external pure returns (string memory) {\n    //     return \"TRB\";\n    // }\n\n    // /**\n    // * @dev Allows users to access the number of decimals\n    // */\n    // function decimals() external pure returns (uint8) {\n    //     return 18;\n    // }\n\n}\n",
  "sourcePath": "/Users/charles.beyer/sandboxStuff/tell/contracts/tellor/Tellor.sol",
  "compiler": {
    "name": "solc",
    "version": "0.5.8+commit.23d335f2.Emscripten.clang"
  },
  "schemaVersion": "3.0.13",
  "updatedAt": "2020-03-02T10:49:38.369Z",
  "devdoc": {
    "details": "Oracle contract where miners can submit the proof of work along with the value. The logic for this contract is in TellorLibrary.sol, TellorDispute.sol, TellorStake.sol, and TellorTransfer.sol",
    "methods": {
      "addTip(uint256,uint256)": {
        "details": "Add tip to Request value from oracle",
        "params": {
          "_requestId": "being requested to be mined",
          "_tip": "amount the requester is willing to pay to be get on queue. Miners mine the onDeckQueryHash, or the api with the highest payout pool"
        }
      },
      "approve(address,uint256)": {
        "details": "This function approves a _spender an _amount of tokens to use",
        "params": {
          "_amount": "amount the spender is being approved for",
          "_spender": "address"
        },
        "return": "true if spender appproved successfully"
      },
      "requestData(string,string,uint256,uint256)": {
        "details": "Request to retreive value from oracle based on timestamp. The tip is not required to be greater than 0 because there are no tokens in circulation for the initial(genesis) request",
        "params": {
          "_c_sapi": "string API being requested be mined",
          "_c_symbol": "is the short string symbol for the api request",
          "_granularity": "is the number of decimals miners should include on the submitted value",
          "_tip": "amount the requester is willing to pay to be get on queue. Miners mine the onDeckQueryHash, or the api with the highest payout pool"
        }
      },
      "submitMiningSolution(string,uint256,uint256)": {
        "details": "Proof of work is called by the miner when they submit the solution (proof of work and value)",
        "params": {
          "_nonce": "uint submitted by miner",
          "_requestId": "the apiId being mined",
          "_value": "of api query"
        }
      },
      "transfer(address,uint256)": {
        "details": "Allows for a transfer of tokens to _to",
        "params": {
          "_amount": "The amount of tokens to send",
          "_to": "The address to send tokens to"
        },
        "return": "true if transfer is successful"
      },
      "transferFrom(address,address,uint256)": {
        "details": "Sends _amount tokens to _to from _from on the condition it is approved by _from",
        "params": {
          "_amount": "The amount of tokens to be transferred",
          "_from": "The address holding the tokens being transferred",
          "_to": "The address of the recipient"
        },
        "return": "True if the transfer was successful"
      }
    },
    "title": "Tellor Oracle System"
  },
  "userdoc": {
    "methods": {}
  }
}